:03000000020008F3
:0300610002000397
:050003001200B780FEB1
:0E006400AA82C28E740F55894420F589438705
:0B007200808A8B8A8DD28E75985222F6
:0E007D00AA82209F0D209E0A7582FFC00212EB
:04008B000064D0023B
:03008F00BA0A08A2
:0500920010990280FB43
:0300970075990D4B
:05009A0010990280FB3B
:03009F008A992219
:0C00A200209F09209E067582FF1200645A
:0500AE0010980280FB28
:0400B3008599822287
:0A00B70074E4C0E07406C0E0748039
:0E00C100C0E01200F515811581158190000038
:0100CF00220E
:0D06E40048656C6C6F20776F726C642100AC
:06003700E478FFF6D8FD9D
:080015007900E94400601B7A48
:05001D00009006FC78D4
:030022000075A0C6
:0A00250000E493F2A308B8000205FE
:08002F00A0D9F4DAF275A0FF7C
:08003D007800E84400600A7934
:030045000075A0A3
:0600480000E4F309D8FCFE
:08004E007800E84400600C7921
:0B00560000900000E4F0A3D8FCD9FAF1
:0600D000C0098581091240
:0500D600007DD00922AD
:0800DB0085823185833285F036
:0500E30033E4F52EF5E9
:0500E8002F75300085BA
:0300ED0008349044
:0500F00000D00201B880
:0600F500C009858109E548
:0700FB000924FBF534E4F5D4
:040102002EF52FF5B2
:0701060030E50924FBF88637
:06010D003108863208866D
:05011300339000D01242
:0501180001B8D009222E
:07011D00AA82C024C025C026
:06012400267434C0E074F3
:06012A0001C0E0C022C08C
:04013000238A82227A
:0A013400158115811581052CE4B535
:04013E002C02052D5D
:01014200229A
:0B014300AA8274302AFA7439B5020059
:0C014E00500A74072AFA30000343022014
:05015A008A8202011D74
:0E015F00E582FAC4540FF582C002120143D0AB
:09016D0002740F5AF582020143ED
:0601760085820AAB27ACF4
:04017C0028AD29AED3
:040180002AAF2B7502
:020184000B204E
:0E018600EF2FFFEE235401FA4207EB2BFBECA8
:0C01940033FCED33FDEE33FEEFB50A0046
:0A01A0004008EFC3950AFF43030176
:0601AA00D50BD98B278C58
:0401B000288D298EDF
:0401B4002A8F2B2241
:0701B8008582228583238567
:0301BF002E248566
:0301C2002F258561
:0401C5003026E4F507
:0301C9002CF52DE5
:0501CC00AA31AB32ACCA
:0C01D100338A828B838CF01206C4FD740C
:0901DD00012AF531E43BF5328CF6
:0801E60033EDFA70030206A5D7
:0501EE00BA25028003A8
:0301F30002069D64
:0501F600C201C202C2BB
:0401FB0003C204C275
:0401FF0005C206C26D
:0402030007C20875B1
:0802070035007536007DFFAEE5
:04020F0031AF32AB2E
:0102130033B7
:0E0214008E828F838BF01206C4FAA3AE82AFE7
:06022200838E318F328B48
:0B02280033BA25078A8212011D80995D
:050233008A04BC30004C
:0902380040288A047439B5040061
:0C024100401FBDFF11E53675F00AA42A2D
:0A024D0024D0F53670C1D20280BD46
:0B025700ED75F00AA42A24D0FD80B24F
:0A026200BA2E07BDFFAC7D0080A896
:05026C008A04BC6100E2
:0902710040108A04747AB50400FF
:09027A0040075302DFD2008002AC
:02028300C200B7
:05028500BA20028055C3
:05028A00BA2B02804BBD
:05028F00BA2D028041C0
:05029400BA4202804B9C
:05029900BA4302805091
:06029E00BA44030204460D
:0602A400BA460302045CEF
:0602AA00BA4903020446FC
:0502B000BA4C0280348D
:0602B500BA4F0302044DE4
:0602BB00BA50030203DD4E
:0502C100BA5302804C5D
:0602C600BA5503020452C8
:0602CC00BA5803020457BA
:0302D200020460C3
:0502D500D20102021439
:0502DA00D20302021432
:0502DF00D2040202142C
:0502E400D20602021425
:0502E900D2070202141F
:0802EE0030060AE53414F8881B
:0502F600348602800FB8
:0A02FB00E53424FEF8883486030879
:050305008604188B02C4
:08030A008A8212011D02046940
:0A031200E53424FDF8883486030862
:0A031C00860408860618188B278C4B
:0A032600288E298B828C838EF0C094
:0E033000051206ACAB82AC83D005BDFF028B7C
:01033E0005B9
:07033F0020012CEBB5360094
:090346005026E536C39BF536ACE8
:01034F003677
:0C0350008C061C8C36EE6014758220C0F8
:0E035C0003C004C00512011DD005D004D0035B
:02036A0080E42D
:02036C008C36CD
:02036E008D04FC
:0703700085278285288385A3
:0C03770029F01206C4FDFA602F8C051C52
:0E038300C374808DF063F08095F050208A8264
:0C039100C003C00412011DD004D003AD55
:04039D0027AE28AFB0
:0603A100290DBD00010E54
:0503A7008D278E288F58
:0303AC002980C1E4
:0603AF00200103020469B5
:0403B500EBB536006E
:0503B90040030204698D
:0703BE00E536C39BF536ACE8
:0103C5003601
:0B03C6008C051C8C36ED7003020467F0
:0C03D100758220C00412011DD00480E9D8
:0A03DD00E53424FDF8883486050895
:0A03E700860608860718188D278E79
:0403F100288F29AD7B
:0403F50029BD80009E
:0603F90040047A43801469
:0303FF00BD6000DE
:0604020040047A50800B5B
:03040800BD4000F4
:06040B0040047A49800262
:020411007A5817
:0E0413008A82C00212011D75823A12011D7507
:0E042100823012011D75827812011DD002BAC0
:04042F004902800BF3
:05043300BA5002800632
:0604380085288212015F1D
:08043E0085278212015F802373
:07044600D20575350A801C88
:05044D00753508801761
:0504520075350A80125F
:05045700753510800D59
:04045C00D208800939
:070460008A8212011D8002D7
:020467008C36D1
:0904690030085AE53424FCF8883F
:0C04720034860408860508860608860704
:08047E001818188C278D288E38
:04048600298F2A751B
:03048A0027F175E2
:03048D00280675C9
:020490002980C1
:0404920085273885FD
:030496002839857D
:05049900293A74012561
:07049E0038FFE43539FCAD25
:0404A5003A8F278CD7
:0404A900288D2985EC
:0604AD00388285398385C9
:0A04B3003AF01206C4FCFA700302CE
:0204BD0001CC70
:0704BF008A8212011D80CCAE
:0704C600E53570030201CCD3
:0404CD00753711303E
:0704D100062BE53414F88846
:0A04D80034E6FD3395E0FEFFFC8DD5
:0404E200278E288FAA
:0404E600298C2A2013
:0A04EA000562AC277D007E007F0054
:0504F4008C278D288E0D
:0504F900298F2A80504C
:0904FE0030071FE53424FCF888E6
:0C0507003486040886050886060886076E
:080513001818188C278D288EA2
:05051B00298F2A802E4B
:0A052000E53424FEF8883486040850
:0C052A00860518ED3395E0FEFF8C278D50
:04053600288E298F53
:05053A002A200510ACB1
:08053F0027AD287E007F008C2F
:04054700278D288E46
:03054B00298F2ACB
:06054E00300525AC27ADCD
:0405540028AE29E5BF
:0C0558002AFF30E717C3E49CFCE49DFD83
:0A056400E49EFEE49FFF8C278D2823
:06056E008E298F2A800295
:02057400C205BE
:06057600D209A8377C0049
:0A057C00752B00853582C004C00015
:0B058600120176D000D00420090DE522
:0A0591002BC4FDE6FE4DF618883776
:02059B008002DC
:02059D00A62B8B
:08059F000C8C03B209E52745AD
:0405A7002845294575
:0805AB002A70CE88378C03E5AD
:0605B300367003753601ED
:0A05B900200225200122EB04FCAD16
:0105C3003601
:0405C400ECB505008D
:0E05C8005015758220C003C004C00512011D2D
:0905D600D005D004D0031D80E51E
:0205DF008D3657
:0C05E10030050E75822DC00312011DD0E4
:0505ED00031536802318
:0C05F200EB602030030E75822BC003125A
:0805FE00011DD0031536800F2A
:0C06060030040C758220C00312011DD0CE
:0306120003153697
:05061500200125AC36B8
:09061A008C051C8C36EBB50500C3
:09062300502B3002047D308002EE
:02062C007D202F
:0E062E008D82C003C00412011DD004D00380D1
:01063C00DDE0
:04063D00EBB53600E3
:0A0641005008E536C39BF53680072C
:05064B0075360080027D
:020650008C36E6
:02065200A837C7
:0A0654008B041BEC6026B20920099C
:0B065E000A08E6C4540FFC8C2B800738
:070669008604740F5CF52B01
:0C067000852B82C003C000120143D000A3
:04067C00D00380D453
:060680002001030201CC81
:02068600AB3691
:090688008B041BEC70030201CC91
:0C069100758220C00312011DD00380EB15
:08069D008A8212011D0201CC4A
:0706A500852C82852D8322C4
:0B06F1003C4E4F20464C4F41543E0051
:0406AC00AA82AB83F0
:0806B0001206C46003A380F8E8
:0C06B800C3E5829AF582E5839BF583225E
:0300080075813AC5
:0A000B001206E0E582600302000324
:0E06C40020F71430F6148883A88220F507E68C
:0606D200A88375830022DD
:0306D800E280F7C6
:0306DB00E4932283
:0206DE00E02218
:0406E00075820022FD
:00000001FF
