:0400000002002332A5
:01000B0032C2
:0100130032BA
:03001B0002010DD2
:07007C00750828E4F509F501
:050083000AE4F50BF595
:010088000C6B
:0300890002001E54
:05001E0012063A80FE0D
:0C008C00E582FAC31375F018A4FB2422CF
:0C009800FCAD1BED2CF88604EA20E01FF4
:0C00A4005304F0EB2422FAED2AF8740754
:0A00B000551C4CFAE51C30E7047EF5
:0300BA00088002B9
:0200BD007E00C3
:0400BF00EE4AF622ED
:0B00C30053040FEB2422FBED2BF8E5AB
:0C00CE001CC454F0FA74705A4204748090
:0500DA00551C4CF6224C
:0C00DF00E582FAC31375F018A42422FB7C
:0C00EB00E51B2BF88603EA30E005EBC4AF
:0300F700540FFBA8
:0C00FA0074075BFAEB30E3047B808002AB
:020106007B007C
:05010800EB4AF5822224
:0C010D00C021C0E0C0F0C082C083C0026E
:0E011900C003C004C005C006C007C000C0017E
:0A012700C0D075D00074A0C0E074D1
:0A0131000DC0E012098F1581158141
:0E013B0080FED0D0D001D000D007D006D00575
:0E014900D004D003D002D083D082D0F0D0E01A
:03015700D0213282
:0E015A00C28EC28C758922438780758BFF751B
:0E0168008DFF758AA5758CA5D28ED28C7598E8
:05017600527582002219
:02017B00AA8256
:05017D0010990280FB57
:0B0182008A99BA0A0675820D02017B03
:01018D00224F
:02018E007A00F5
:0B019000C3EA648094984003020266FA
:02019B007B00E7
:0B019D00C3EB6480948F4003020262F9
:0C01A8008A1B8B82C002C0031200DFE53E
:0D01B40082D003D0025480FCBC8002800386
:0301C10002025ED9
:0C01C4008A1B8B82C002C0031200DFE522
:0A01D00082D003D002547FF51C8A90
:0C01DA001B8B82C002C00312008CD003FB
:0E01E600D002C2D575F002EB30E704B2D5F4BA
:0101F4000406
:0E01F500A430D50AF42401C5F0F43400C5F09E
:0E0203002401FCE435F0FDEAFE3395E0FF0E29
:04021100BE00010F1B
:0D021500C002C003C004C005C006C00774CD
:08022200BBC0E0740DC0E01246
:0D022A00098FE58124FAF581D003D0028A06
:0C0237001B8B82C002C0031200DFAC82EF
:0B0243007D00C004C00574C4C0E0745E
:0C024E000DC0E012098FE58124FCF58151
:04025A00D003D002FB
:04025E000B02019DF1
:040262000A020190FB
:0902660074CDC0E0740DC0E0127B
:07026F00098F1581158122A2
:0C027600AA82C3EA6480948F40027A0ED2
:0A028200C3E50D64809498400375F5
:02028C000D174C
:06028E00850D1B74804584
:060294000EF51C8A820237
:02029A00008CD6
:04029C00850F1B129D
:0902A00000DFE582547FF58222A3
:0A02A900AA82E51175F00BA4FB24F6
:0A02B300CFFCE4340CFD74032CFCB6
:0502BD00E43DFD7E00A0
:0C02C200C3EE648094845051EB24CFFF05
:0C02CE00E4340CF88F828883A3A3E4932F
:0402DA00F50E851088
:0C02DE000D8A82C002C003C004C005C02D
:0E02EA0006120276D006D005D004D003D00252
:0E02F800EE2EFF2CF582E43DF583E4932AFA06
:0E030600EF2CFFE43DF88F828883A3E493FF81
:070314002510F5100E80A773
:0A031B00EB24CFFBE4340CFC8B82D2
:0A0325008C83A3A3E493F50E85106A
:06032F000D8A8202027635
:0A033500AA82E51375F00BA424CF93
:0C033F00FBE4340CFC74032BFBE43CFCDE
:02034B007D0033
:0A034D00C3ED64809484503E8512D5
:0A0357000D750E008A82C002C0037B
:0E036100C004C005120276D005D004D003D02F
:0E036F0002ED2DFE2BF582E43CF583E4932A8B
:0E037D00FAEE2BFEE43CFF8E828F83A3E49306
:08038B00FE2512F5120D80BAE7
:0403930085120D754D
:070397000E008A82020276CB
:0A039E00AA82E51575F00BA424CF28
:0C03A800FBE4340CFC74032BFBE43CFC75
:0203B4007D00CA
:0A03B600C3ED648094845043851465
:0C03C0000F8A82C002C003C004C00512F6
:0E03CC00029CE582D005D004D003D00260046C
:0403DA007582012205
:0E03DE00ED2DFE2BF582E43CF583E4932AFA24
:0E03EC00EE2BFEE43CFF8E828F83A3E493FE93
:0703FA002514F5140D80B578
:0604010085140F8A82122F
:0A040700029CE58260047582012268
:0404110075820022CE
:020415007A006B
:03041700BA180010
:04041A00503D7B01D5
:03041E00BB0E0012
:0A04210050158A1B751C808B82C0E9
:0D042B0002C00312008CD003D0020B80E64B
:0A0438008A1B751C84758200C00247
:0804420012008CD0028A1B7528
:0C044A001C8475820EC00212008CD002CF
:030456000A80BE5B
:020459007A0027
:03045B00BA0F00D5
:0A045E005021751B00751C848A8272
:0B046800C00212008CD002751B17753B
:0C0473001C848A82C00212008CD0020A95
:02047F0080DA21
:010481002258
:040482007A007B0180
:0C048600C3EB64809497504F7C007D0114
:0C049200C3ED6480948E50218B1B8D8282
:0E049E00C002C003C004C0051200DFE582D01A
:0C04AC0005D004D003D002547F60010C86
:0304B8000D80D7DD
:0A04BB00BC0D1C8B1B751C847582A0
:0E04C50000C002C00312008CD003D0020A0552
:0604D30009E4B509020571
:0104D9000A18
:0304DA000B80A9EB
:0404DD00EA7001229E
:0D04E100EA2AFA900DD893CAA393FBEA25EE
:0504EE000BF50BEB35DE
:0704F3000CF50C7A167B16D4
:0D04FA00C374808BF063F08095F040030226
:02050700058C61
:020509008A0462
:0C050B008C1B758200C003C0041200DFCE
:0E051700E582D004D00330E7051C8C0280E69C
:0C0525008C02C3EC6480948150237C01A4
:0B053100C3EC6480948E504E8B1B7551
:0B053C001C808C82C002C003C00412AF
:0B054700008CD004D003D0020C80DF39
:020552007C012A
:0C055400C3EC6480948E502B8A1B8C82B8
:0E056000C002C003C0041200DFE582D004D048
:0A056E00034480F51C8B1B8C82C037
:0E05780003C00412008CD004D003D0020C800B
:01058600CDA7
:050587001B1A0204FA3A
:03058C0002018EDB
:07058F002098047582002290
:0E059600C298859982120979E5826007AA99B8
:0505A4005302DF80029C
:0205A900AA990D
:0505AB00BA2C0280459E
:0505B000BA4202804484
:0505B500BA4902803785
:0505BA00BA4A02802A8C
:0505BF00BA4B02801D93
:0505C400BA4C02802486
:0505C900BA4D0280277D
:0505CE00BA5002802A72
:0505D300BA5102800591
:0505D800BA5527800860
:0405DD007582012200
:0405E10075820322FA
:0405E50075820222F7
:0405E90075820522F0
:0405ED0075820422ED
:0405F10075820622E7
:0405F50075820722E2
:0405F90075820822DD
:0505FD0010980280FBD4
:0406020075820022DB
:04060600AA82AB8396
:09060A008A048B051ABAFF011BDA
:09061300EC4D601120980E7C00F2
:04061C00ECB5080031
:0806200050E82098E50C80F47D
:0106280022AF
:0906290074E2C0E0740DC0E0129F
:06063200098F15811581FE
:0206380080FE42
:09063A007400C0E0740EC0E0126F
:0E064300098F158115817420C0E0E4C0E074B9
:0B06510001C0E0E4C0E0741EC0E074D3
:0C065C000EC0E012098FE58124FAF58140
:0E0668007420C0E0E4C0E07402C0E0E4C0E032
:090676007441C0E0740EC0E012F2
:0E067F00098FE58124FAF5817420C0E0E4C003
:0C068D00E07403C0E0E4C0E07463C0E06F
:0C069900740EC0E012098FE58124FAF510
:0E06A500817420C0E0E4C0E07404C0E0E4C052
:0A06B300E07491C0E0740EC0E01284
:0E06BD00098FE58124FAF5817420C0E0E4C0C5
:0C06CB00E07406C0E0E4C0E074C0C0E0D1
:0C06D700740EC0E012098FE58124FAF5D2
:0E06E300817420C0E0E4C0E07407C0E0E4C011
:0A06F100E074E8C0E0740EC0E012EF
:0C06FB00098FE58124FAF5811204151224
:02070700018E61
:0E0709007420C0E0E4C0E07409C0E0E4C0E089
:09071700740EC0E0740FC0E01282
:08072000098FE58124FAF5813F
:0E07280012058FAA82BA0107C002120629D05C
:0107360002C0
:0B073700BA08EE120415750901E4F584
:040742000AF50BF5B4
:0C0746000C7420C0E0E4C0E07408C0E0C7
:0A075200E4C0E07433C0E0740FC08F
:0D075C00E012098FE58124FAF5810208B151
:070769007B00AC16AD17AEDA
:0C07700018C003C004C005C00612058FAD
:0E077C00AA82D006D005D004D003EA704BE567
:0A078A001804FE7B01C3E509942A60
:09079400E50A94005006AF09A823
:03079D000A8004CB
:0407A0007F2A780034
:0A07A4008F1B881C900032C002C0B9
:0E07AE0003C004C005C00612095CAF82A88318
:0E07BC0074C4C39FF582740998F58312060673
:0A07CA00D006D005D004D003D00201
:0E07D400309815C003C004C005C00612058F82
:0A07E200AA82D006D005D004D0038F
:0B07EC00EA6063AE18BA01030209596D
:0C07F700BA030DE51675F00BA4900CCFB2
:0408030093FC804999
:0A080700BA0217E51675F00BA424E1
:0A081100CFFFE4340CF88F828883D7
:06081B00A3E493FC802F12
:0A082100BA050AE5176028E5171470
:03082B00FD80222B
:0C082E00BA040FC3E5176480948E5016C6
:06083A00E51704FD80102B
:0C084000BA070DC3E518648094975004BB
:04084C00E51804FEA9
:020850007B002B
:0A085200EDB5170BEEB51807ECB575
:05085C0016030207690C
:04086100851812855F
:03086500161385E2
:0B0868001782C003C004C005C00612C8
:0B0873000335D006D005D0048E148C95
:0C087E00158D82C004C005C00612039E48
:0D088A00E582D006D005D004D00370098DA2
:04089700178E188C14
:04089B0016020947F1
:06089F00EB7003020947A3
:0408A500851810851D
:0308A900161185A0
:0508AC0017821202A9F1
:0A08B10075180375170775F013E5BD
:0908BB008A8485F016120482758E
:0408C400140385167E
:0C08C8001575820712039EE58260227401
:0E08D4000AC0E0E4C0E0740CC0E0E4C0E074D0
:0808E20058C0E0740FC0E012E1
:0B08EA00098FE58124FAF5810207095F
:0508F500E509250BF5EB
:0408FA000BE50A35CB
:0408FE000CF50CC029
:0A09020009C00A7420C0E0E4C0E060
:0C090C00740FC0E0E4C0E07476C0E0743A
:0C0918000FC0E012098FE58124F8F58182
:0A092400C00BC00C7420C0E0E4C05A
:0C092E00E07410C0E0E4C0E0748EC0E093
:0C093A00740FC0E012098FE58124F8F56D
:01094600812F
:04094700851810857A
:03094B00161185FD
:06094E0017821202A9123B
:05095400018E0207699D
:030959000206296A
:0E0CCF0000000400FF01000001FF000202020D
:0E0CDD00FF0001000100010001010200FF0004
:0E0CEB000100010001040406FF0001000001E9
:0E0CF900010003030600FF0001FF00000106DA
:0E0D070006010100FF000001FF0005050100CC
:0E0D1500FF000101000001080A050100FF00B7
:0E0D2300FF0000FF09070500FF00010001FFAF
:0E0D3100000A0805FF0001000100000107098B
:0E0D3F0005000100FF00FF01000C0E03010083
:0E0D4D00FF00FF0000010D0B0300FF0001007E
:0E0D5B000101000E0C03FF000100010000FF6B
:0E0D69000B0D03000100FF00FFFF001012073A
:0E0D770000FF0001FF000200110F07FF000146
:0E0D85000000FF0002121007000100FF010035
:0D0D9300FE000F11070100FF00000100FE2F
:0E0DA0004E6F742072756E6E696E6720756EF0
:0D0DAE0064657220434D4F4E3531210A001F
:090DBB001B5B25643B2564480024
:090DC4001B5B3425646D20200046
:0B0DCD001B5B303B33313B34376D00C3
:0A0DD800000032006400C800900122
:0E0DE2001B5B324A1B5B3F3235681B5B303BAC
:0E0DF00033373B34306D1B5B6D1B5B313B3189
:020DFE004800AB
:0E0E00001B5B303B33373B34306D1B5B6D1B8F
:0E0E0E005B313B31481B5B324A1B5B3F323588
:020E1C006C0068
:0E0E1E001B5B25643B256448544554524953E0
:0E0E2C0020627920416C657865692050617AFA
:070E3A006869746E6F760019
:0E0E41001B5B25643B2564484F726967696E30
:0E0E4F00616C6C7920627920436872697320AF
:060E5D00476965736500A2
:0E0E63001B5B25643B256448383035322F5325
:0E0E710044434320706F7274206279204A65FA
:0E0E7F007375732043616C76696E6F2D467239
:040E8D006167610038
:0E0E91001B5B25643B256448557064617465E5
:0E0E9F0064206279204D696368616C20274DE4
:0E0EAD00446F62616B2720446F6261637A6557
:050EBB0077736B690074
:0E0EC0001B5B25643B256448274B273A526F85
:0E0ECE00746174652C202750273A50617573AB
:0C0EDC00652C202751273A5175697400DD
:0E0EE8001B5B25643B256448274A273A4C656E
:0E0EF60066742C20274C273A52696768742CCA
:0A0F040020274D273A446F776E0056
:0E0F0E001B5B303B33313B34376D1B5B25647E
:0E0F1C003B25644850726573732027422720DE
:090F2A00746F20626567696E00B6
:0E0F33001B5B303B33313B34376D1B5B256459
:0E0F41003B2564482020202020202020202056
:090F4F0020202020202020200099
:0E0F58001B5B303B33313B34376D1B5B256434
:0E0F66003B2564482047414D45204F564552DB
:020F740020005B
:0E0F76001B5B25643B2564484C6576656C3A30
:0A0F840020257520202020202000E9
:0E0F8E001B5B25643B25644853636F72653A14
:0A0F9C0020257520202020202000D1
:06005200E478FFF6D8FD82
:080030007900E94400601B7A2D
:050038000090110678A4
:03003D000075A0AB
:0A00400000E493F2A308B8000205E3
:08004A00A0D9F4DAF275A0FF61
:0B095C00E582851BF0A4C582C0F08579
:0A0967001CF0A4D0F025F0C5838534
:080971001BF0A42583F583228D
:080058007800E84400600A7919
:030060000075A088
:0600630000E4F309D8FCE3
:080069007800E84400600C7906
:0B00710000900000E4F0A3D8FCD9FAD6
:05097900AA82BA610032
:07097E00400B747AB5020082
:060985004004758201220E
:04098B00758200224F
:030023007581E103
:0A00260012015AE582600302001E79
:05098F00C01A85811A69
:0B099400E51A24FDF8868318868218FF
:06099F00E493A3B4256BF4
:0509A500C200C201C206
:0409AA0002C203C2C0
:0409AE0004C2057901
:0309B200197700B2
:0B09B500E493A324C64017240A501549
:0709C0007005B51902D20514
:0C09C700D204FAE775F00AA42AF780E2D7
:0209D300240AF4
:0209D5002430CC
:0709D700B46C04D20080D7CC
:0709DE00B46804D20180D0CF
:0609E500B47303020A1BBB
:0909EB00B46406120BA4020A77A1
:0909F400B47506120BA4020A9767
:0809FD00B4630518E618800D33
:060A0500B47803020A565A
:050A0B00B42E0280A5DD
:020A100060067E
:060A1200120C9602099F80
:030A1800020CB01D
:0E0A1B00C083C08286F0188683188682183049
:080A29000419C205C082C0835C
:090A3100120CB36007A31519E5CE
:030A3A001970F43C
:070A3D00120C81D083D0826E
:0B0A4400120CB36006A3120C9680F5A4
:070A4F00D082D08302099F51
:070A5600120A6E20010C12D0
:060A5D000A6E30000612D3
:050A63000A6E120A6E8C
:060A6800120CA802099F18
:090A6E00E6120C86E618020C8762
:0C0A7700ED30E71CD203E9F42401F92063
:0A0A83000112EAF43400FA30000A10
:0A0A8D00EBF43400FBECF43400FC41
:060A9700200110300008F0
:080A9D00EB7021EC701EC20099
:050AA500EA7019D20106
:0A0AAA00E97014300409E519600535
:050AB4001519120C8170
:080AB9007430120C9602099F33
:070AC100C082C083120BBECE
:030AC80030046097
:0C0ACB00790A30001DEB54F0703619EB76
:0E0AD700540F703019EA54F0702A19EA540FC7
:080AE500702419EF54F0701E9B
:0C0AED00790520010BEF540F701419EE76
:040AF90054F0700E37
:0E0AFD007903EE540F700719ED54F0700119D3
:080B0B00E519A203994019F558
:0C0B130019C003C002C007C006C00512D4
:0C0B1F000C81D005D006D007D002D00316
:0C0B2B00300319C003C002C007C006C0A0
:0E0B370005742D120C96D005D006D007D00202
:020B4500D003DB
:060B470020014030002CEB
:0E0B4D00C005C006C0078A82EBF583120C8635
:0D0B5B00E583120C87E582120C86E58212FC
:0E0B68000C87D0E0F582120C86E582D083D097
:030B760082800575
:050B79008D828E83EF68
:0C0B7E00120C87E583120C86E5838003CF
:030B8A008D82EE6B
:0B0B8D00120C87E582120C86E5821234
:0A0B98000C87120CA8D083D0820253
:020BA200099FA9
:0C0BA400E6F9FD18200112AA01E6F9187C
:0C0BB00030000AAC02AB01E6FA18E6F9CE
:010BBC001820
:010BBD002215
:0E0BBE00E975F06484FE740AC5F084C445F045
:050BCC00FD30010122D3
:0E0BD100EA540FF9900FA6932DD4FDE94410BD
:0E0BDF00933ED4FEEAC4540FF9900FC6932D36
:0E0BED00D4FDE94410933ED4FEE94420933435
:070BFB0000D4FF20000122DD
:0E0C0200EB540FF9900FF6932DD4FDE944103A
:0E0C1000933ED4FEE94420933FD4FFE4340029
:0E0C1E00FAEBC4540FF9901026932DD4FDE983
:0E0C2C004410933ED4FEE94420933FD4FFE9E8
:0E0C3A004430933AD4FAEC540FF99010667BD4
:0C0C480000120C54ECC4540FF99010B6CC
:0E0C5400932DD4FDE94410933ED4FEE94420D4
:0E0C6200933FD4FFE94430933AD4FAE944407A
:050C7000933BD4FB22C0
:070C75007420300502743009
:050C7C00120C96151991
:050C8100E51970F022EE
:010C8600C4A9
:070C8700540F700330021945
:080C8E00D2022490D43440D4BA
:0E0C9600C083C082C000F58212017BD000D066
:030CA40082D08378
:010CA700222A
:080CA8002002FC7430020C96DE
:030CB000D01A2235
:0E0FA6000056126824803692480460167228A5
:0E0FB40084400002050710121517202325287F
:040FC200303335385B
:0E0FC600009692888480767268646056524865
:0E0FD40044400040812263044586276809508E
:0E0FE2009132731400000001010202020303A9
:060FF000040404050506DF
:0E0FF6000036720844801652882460963268D5
:0E10040004400055106621763287429853084A
:0E1012006419753000061319263239455258FC
:06102000657278859198CD
:0E102600007652280480563208846036128804
:0E1034006440008571574328140086715743AD
:0E1042002914008600040914192429343843A7
:0E105000485358636872000102030405060746
:08105E0008091011121314150A
:0E106600001632486480961228446076920884
:0E1074002440007244168860320577492193AB
:0E108200653810820077553310886644219936
:0E1090007754321088650016335067830017BE
:0E109E00345067840118345100000000000037
:0A10AC00010101010101020202022C
:0E10B600005612682480369248046016722894
:0E10C40084400054096318722781369145005C
:0E10D200540963180043873074176104489175
:0E10E00035792266095300683605734210798F
:0E10EE00471584522189582600020508101368
:0A10FC00161821242629323437404B
:0E0CB30020F71430F6148883A88220F507E697
:060CC100A88375830022E8
:030CC700E280F7D1
:030CCA00E493228E
:020CCD00E02223
:00000001FF
